{
  "contractName": "SmartContract",
  "abi": [
    {
      "inputs": [],
      "stateMutability": "nonpayable",
      "type": "constructor"
    },
    {
      "anonymous": false,
      "inputs": [
        {
          "indexed": true,
          "internalType": "address",
          "name": "owner",
          "type": "address"
        },
        {
          "indexed": true,
          "internalType": "address",
          "name": "approved",
          "type": "address"
        },
        {
          "indexed": true,
          "internalType": "uint256",
          "name": "tokenId",
          "type": "uint256"
        }
      ],
      "name": "Approval",
      "type": "event"
    },
    {
      "anonymous": false,
      "inputs": [
        {
          "indexed": true,
          "internalType": "address",
          "name": "owner",
          "type": "address"
        },
        {
          "indexed": true,
          "internalType": "address",
          "name": "operator",
          "type": "address"
        },
        {
          "indexed": false,
          "internalType": "bool",
          "name": "approved",
          "type": "bool"
        }
      ],
      "name": "ApprovalForAll",
      "type": "event"
    },
    {
      "anonymous": false,
      "inputs": [
        {
          "indexed": true,
          "internalType": "address",
          "name": "previousOwner",
          "type": "address"
        },
        {
          "indexed": true,
          "internalType": "address",
          "name": "newOwner",
          "type": "address"
        }
      ],
      "name": "OwnershipTransferred",
      "type": "event"
    },
    {
      "anonymous": false,
      "inputs": [
        {
          "indexed": true,
          "internalType": "address",
          "name": "from",
          "type": "address"
        },
        {
          "indexed": true,
          "internalType": "address",
          "name": "to",
          "type": "address"
        },
        {
          "indexed": true,
          "internalType": "uint256",
          "name": "tokenId",
          "type": "uint256"
        }
      ],
      "name": "Transfer",
      "type": "event"
    },
    {
      "inputs": [
        {
          "internalType": "address",
          "name": "to",
          "type": "address"
        },
        {
          "internalType": "uint256",
          "name": "tokenId",
          "type": "uint256"
        }
      ],
      "name": "approve",
      "outputs": [],
      "stateMutability": "nonpayable",
      "type": "function"
    },
    {
      "inputs": [
        {
          "internalType": "address",
          "name": "owner",
          "type": "address"
        }
      ],
      "name": "balanceOf",
      "outputs": [
        {
          "internalType": "uint256",
          "name": "",
          "type": "uint256"
        }
      ],
      "stateMutability": "view",
      "type": "function",
      "constant": true
    },
    {
      "inputs": [],
      "name": "baseExtension",
      "outputs": [
        {
          "internalType": "string",
          "name": "",
          "type": "string"
        }
      ],
      "stateMutability": "view",
      "type": "function",
      "constant": true
    },
    {
      "inputs": [],
      "name": "baseURI",
      "outputs": [
        {
          "internalType": "string",
          "name": "",
          "type": "string"
        }
      ],
      "stateMutability": "view",
      "type": "function",
      "constant": true
    },
    {
      "inputs": [],
      "name": "cost",
      "outputs": [
        {
          "internalType": "uint256",
          "name": "",
          "type": "uint256"
        }
      ],
      "stateMutability": "view",
      "type": "function",
      "constant": true
    },
    {
      "inputs": [
        {
          "internalType": "uint256",
          "name": "tokenId",
          "type": "uint256"
        }
      ],
      "name": "getApproved",
      "outputs": [
        {
          "internalType": "address",
          "name": "",
          "type": "address"
        }
      ],
      "stateMutability": "view",
      "type": "function",
      "constant": true
    },
    {
      "inputs": [
        {
          "internalType": "address",
          "name": "owner",
          "type": "address"
        },
        {
          "internalType": "address",
          "name": "operator",
          "type": "address"
        }
      ],
      "name": "isApprovedForAll",
      "outputs": [
        {
          "internalType": "bool",
          "name": "",
          "type": "bool"
        }
      ],
      "stateMutability": "view",
      "type": "function",
      "constant": true
    },
    {
      "inputs": [],
      "name": "maxMintAmount",
      "outputs": [
        {
          "internalType": "uint256",
          "name": "",
          "type": "uint256"
        }
      ],
      "stateMutability": "view",
      "type": "function",
      "constant": true
    },
    {
      "inputs": [],
      "name": "maxSupply",
      "outputs": [
        {
          "internalType": "uint256",
          "name": "",
          "type": "uint256"
        }
      ],
      "stateMutability": "view",
      "type": "function",
      "constant": true
    },
    {
      "inputs": [],
      "name": "name",
      "outputs": [
        {
          "internalType": "string",
          "name": "",
          "type": "string"
        }
      ],
      "stateMutability": "view",
      "type": "function",
      "constant": true
    },
    {
      "inputs": [],
      "name": "owner",
      "outputs": [
        {
          "internalType": "address",
          "name": "",
          "type": "address"
        }
      ],
      "stateMutability": "view",
      "type": "function",
      "constant": true
    },
    {
      "inputs": [
        {
          "internalType": "uint256",
          "name": "tokenId",
          "type": "uint256"
        }
      ],
      "name": "ownerOf",
      "outputs": [
        {
          "internalType": "address",
          "name": "",
          "type": "address"
        }
      ],
      "stateMutability": "view",
      "type": "function",
      "constant": true
    },
    {
      "inputs": [],
      "name": "paused",
      "outputs": [
        {
          "internalType": "bool",
          "name": "",
          "type": "bool"
        }
      ],
      "stateMutability": "view",
      "type": "function",
      "constant": true
    },
    {
      "inputs": [],
      "name": "renounceOwnership",
      "outputs": [],
      "stateMutability": "nonpayable",
      "type": "function"
    },
    {
      "inputs": [
        {
          "internalType": "address",
          "name": "from",
          "type": "address"
        },
        {
          "internalType": "address",
          "name": "to",
          "type": "address"
        },
        {
          "internalType": "uint256",
          "name": "tokenId",
          "type": "uint256"
        }
      ],
      "name": "safeTransferFrom",
      "outputs": [],
      "stateMutability": "nonpayable",
      "type": "function"
    },
    {
      "inputs": [
        {
          "internalType": "address",
          "name": "from",
          "type": "address"
        },
        {
          "internalType": "address",
          "name": "to",
          "type": "address"
        },
        {
          "internalType": "uint256",
          "name": "tokenId",
          "type": "uint256"
        },
        {
          "internalType": "bytes",
          "name": "_data",
          "type": "bytes"
        }
      ],
      "name": "safeTransferFrom",
      "outputs": [],
      "stateMutability": "nonpayable",
      "type": "function"
    },
    {
      "inputs": [
        {
          "internalType": "address",
          "name": "operator",
          "type": "address"
        },
        {
          "internalType": "bool",
          "name": "approved",
          "type": "bool"
        }
      ],
      "name": "setApprovalForAll",
      "outputs": [],
      "stateMutability": "nonpayable",
      "type": "function"
    },
    {
      "inputs": [
        {
          "internalType": "bytes4",
          "name": "interfaceId",
          "type": "bytes4"
        }
      ],
      "name": "supportsInterface",
      "outputs": [
        {
          "internalType": "bool",
          "name": "",
          "type": "bool"
        }
      ],
      "stateMutability": "view",
      "type": "function",
      "constant": true
    },
    {
      "inputs": [],
      "name": "symbol",
      "outputs": [
        {
          "internalType": "string",
          "name": "",
          "type": "string"
        }
      ],
      "stateMutability": "view",
      "type": "function",
      "constant": true
    },
    {
      "inputs": [
        {
          "internalType": "uint256",
          "name": "index",
          "type": "uint256"
        }
      ],
      "name": "tokenByIndex",
      "outputs": [
        {
          "internalType": "uint256",
          "name": "",
          "type": "uint256"
        }
      ],
      "stateMutability": "view",
      "type": "function",
      "constant": true
    },
    {
      "inputs": [
        {
          "internalType": "address",
          "name": "owner",
          "type": "address"
        },
        {
          "internalType": "uint256",
          "name": "index",
          "type": "uint256"
        }
      ],
      "name": "tokenOfOwnerByIndex",
      "outputs": [
        {
          "internalType": "uint256",
          "name": "",
          "type": "uint256"
        }
      ],
      "stateMutability": "view",
      "type": "function",
      "constant": true
    },
    {
      "inputs": [],
      "name": "totalSupply",
      "outputs": [
        {
          "internalType": "uint256",
          "name": "",
          "type": "uint256"
        }
      ],
      "stateMutability": "view",
      "type": "function",
      "constant": true
    },
    {
      "inputs": [
        {
          "internalType": "address",
          "name": "from",
          "type": "address"
        },
        {
          "internalType": "address",
          "name": "to",
          "type": "address"
        },
        {
          "internalType": "uint256",
          "name": "tokenId",
          "type": "uint256"
        }
      ],
      "name": "transferFrom",
      "outputs": [],
      "stateMutability": "nonpayable",
      "type": "function"
    },
    {
      "inputs": [
        {
          "internalType": "address",
          "name": "newOwner",
          "type": "address"
        }
      ],
      "name": "transferOwnership",
      "outputs": [],
      "stateMutability": "nonpayable",
      "type": "function"
    },
    {
      "inputs": [
        {
          "internalType": "address",
          "name": "",
          "type": "address"
        }
      ],
      "name": "whitelisted",
      "outputs": [
        {
          "internalType": "bool",
          "name": "",
          "type": "bool"
        }
      ],
      "stateMutability": "view",
      "type": "function",
      "constant": true
    },
    {
      "inputs": [
        {
          "internalType": "address",
          "name": "_to",
          "type": "address"
        },
        {
          "internalType": "uint256",
          "name": "_mintAmount",
          "type": "uint256"
        }
      ],
      "name": "mint",
      "outputs": [],
      "stateMutability": "payable",
      "type": "function",
      "payable": true
    },
    {
      "inputs": [
        {
          "internalType": "address",
          "name": "_owner",
          "type": "address"
        }
      ],
      "name": "walletOfOwner",
      "outputs": [
        {
          "internalType": "uint256[]",
          "name": "",
          "type": "uint256[]"
        }
      ],
      "stateMutability": "view",
      "type": "function",
      "constant": true
    },
    {
      "inputs": [
        {
          "internalType": "uint256",
          "name": "tokenId",
          "type": "uint256"
        }
      ],
      "name": "tokenURI",
      "outputs": [
        {
          "internalType": "string",
          "name": "",
          "type": "string"
        }
      ],
      "stateMutability": "view",
      "type": "function",
      "constant": true
    },
    {
      "inputs": [
        {
          "internalType": "uint256",
          "name": "_newCost",
          "type": "uint256"
        }
      ],
      "name": "setCost",
      "outputs": [],
      "stateMutability": "nonpayable",
      "type": "function"
    },
    {
      "inputs": [
        {
          "internalType": "uint256",
          "name": "_newmaxMintAmount",
          "type": "uint256"
        }
      ],
      "name": "setmaxMintAmount",
      "outputs": [],
      "stateMutability": "nonpayable",
      "type": "function"
    },
    {
      "inputs": [
        {
          "internalType": "string",
          "name": "_newBaseURI",
          "type": "string"
        }
      ],
      "name": "setBaseURI",
      "outputs": [],
      "stateMutability": "nonpayable",
      "type": "function"
    },
    {
      "inputs": [
        {
          "internalType": "string",
          "name": "_newBaseExtension",
          "type": "string"
        }
      ],
      "name": "setBaseExtension",
      "outputs": [],
      "stateMutability": "nonpayable",
      "type": "function"
    },
    {
      "inputs": [
        {
          "internalType": "bool",
          "name": "_state",
          "type": "bool"
        }
      ],
      "name": "pause",
      "outputs": [],
      "stateMutability": "nonpayable",
      "type": "function"
    },
    {
      "inputs": [
        {
          "internalType": "address",
          "name": "_user",
          "type": "address"
        }
      ],
      "name": "whitelistUser",
      "outputs": [],
      "stateMutability": "nonpayable",
      "type": "function"
    },
    {
      "inputs": [
        {
          "internalType": "address",
          "name": "_user",
          "type": "address"
        }
      ],
      "name": "removeWhitelistUser",
      "outputs": [],
      "stateMutability": "nonpayable",
      "type": "function"
    },
    {
      "inputs": [],
      "name": "withdraw",
      "outputs": [],
      "stateMutability": "payable",
      "type": "function",
      "payable": true
    }
  ],
  "bytecode": "0x60c06040526005608081905264173539b7b760d91b60a09081526200002891600c919062000136565b50670de0b6b3a7640000600d55600a600e556002600f556010805460ff191690553480156200005657600080fd5b50604080518082018252600e81526d14db585c9d0810dbdb9d1c9858dd60921b602080830191825283518085019094526002845261534360f01b908401528151919291620000a79160009162000136565b508051620000bd90600190602084019062000136565b505050620000da620000d4620000e060201b60201c565b620000e4565b62000219565b3390565b600a80546001600160a01b038381166001600160a01b0319831681179093556040519116919082907f8be0079c531659141344cd1fd0a4f28419497f9722a3daafe3b4186f6b6457e090600090a35050565b8280546200014490620001dc565b90600052602060002090601f016020900481019282620001685760008555620001b3565b82601f106200018357805160ff1916838001178555620001b3565b82800160010185558215620001b3579182015b82811115620001b357825182559160200191906001019062000196565b50620001c1929150620001c5565b5090565b5b80821115620001c15760008155600101620001c6565b600281046001821680620001f157607f821691505b602082108114156200021357634e487b7160e01b600052602260045260246000fd5b50919050565b6125c180620002296000396000f3fe60806040526004361061020f5760003560e01c806355f804b311610118578063a22cb465116100a0578063d5abeb011161006f578063d5abeb01146105ad578063d936547e146105c2578063da3ef23f146105e2578063e985e9c514610602578063f2fde38b146106225761020f565b8063a22cb46514610538578063b88d4fde14610558578063c668286214610578578063c87b56dd1461058d5761020f565b806370a08231116100e757806370a08231146104b9578063715018a6146104d95780637f00c7a6146104ee5780638da5cb5b1461050e57806395d89b41146105235761020f565b806355f804b31461044f5780635c975abb1461046f5780636352211e146104845780636c0360eb146104a45761020f565b80632f745c591161019b57806342842e0e1161016a57806342842e0e146103a2578063438b6300146103c257806344a0d68a146103ef5780634a4c560d1461040f5780634f6ccce71461042f5761020f565b80632f745c591461034757806330cc7ae0146103675780633ccfd60b1461038757806340c10f191461038f5761020f565b8063095ea7b3116101e2578063095ea7b3146102bb57806313faede6146102db57806318160ddd146102fd578063239c70ae1461031257806323b872dd146103275761020f565b806301ffc9a71461021457806302329a291461024a57806306fdde031461026c578063081812fc1461028e575b600080fd5b34801561022057600080fd5b5061023461022f366004611cef565b610642565b6040516102419190611f0b565b60405180910390f35b34801561025657600080fd5b5061026a610265366004611cd5565b61066f565b005b34801561027857600080fd5b506102816106ca565b6040516102419190611f16565b34801561029a57600080fd5b506102ae6102a9366004611d6d565b61075c565b6040516102419190611e76565b3480156102c757600080fd5b5061026a6102d6366004611cac565b61079f565b3480156102e757600080fd5b506102f0610837565b6040516102419190612426565b34801561030957600080fd5b506102f061083d565b34801561031e57600080fd5b506102f0610843565b34801561033357600080fd5b5061026a610342366004611bcf565b610849565b34801561035357600080fd5b506102f0610362366004611cac565b610881565b34801561037357600080fd5b5061026a610382366004611b83565b6108d3565b61026a610933565b61026a61039d366004611cac565b6109e5565b3480156103ae57600080fd5b5061026a6103bd366004611bcf565b610aa5565b3480156103ce57600080fd5b506103e26103dd366004611b83565b610ac0565b6040516102419190611ec7565b3480156103fb57600080fd5b5061026a61040a366004611d6d565b610b7e565b34801561041b57600080fd5b5061026a61042a366004611b83565b610bc2565b34801561043b57600080fd5b506102f061044a366004611d6d565b610c25565b34801561045b57600080fd5b5061026a61046a366004611d27565b610c80565b34801561047b57600080fd5b50610234610cd6565b34801561049057600080fd5b506102ae61049f366004611d6d565b610cdf565b3480156104b057600080fd5b50610281610d14565b3480156104c557600080fd5b506102f06104d4366004611b83565b610da2565b3480156104e557600080fd5b5061026a610de6565b3480156104fa57600080fd5b5061026a610509366004611d6d565b610e31565b34801561051a57600080fd5b506102ae610e75565b34801561052f57600080fd5b50610281610e84565b34801561054457600080fd5b5061026a610553366004611c83565b610e93565b34801561056457600080fd5b5061026a610573366004611c0a565b610f61565b34801561058457600080fd5b50610281610f9a565b34801561059957600080fd5b506102816105a8366004611d6d565b610fa7565b3480156105b957600080fd5b506102f061102d565b3480156105ce57600080fd5b506102346105dd366004611b83565b611033565b3480156105ee57600080fd5b5061026a6105fd366004611d27565b611048565b34801561060e57600080fd5b5061023461061d366004611b9d565b61109a565b34801561062e57600080fd5b5061026a61063d366004611b83565b6110c8565b60006001600160e01b0319821663780e9d6360e01b1480610667575061066782611136565b90505b919050565b610677611176565b6001600160a01b0316610688610e75565b6001600160a01b0316146106b75760405162461bcd60e51b81526004016106ae9061227b565b60405180910390fd5b6010805460ff1916911515919091179055565b6060600080546106d9906124c9565b80601f0160208091040260200160405190810160405280929190818152602001828054610705906124c9565b80156107525780601f1061072757610100808354040283529160200191610752565b820191906000526020600020905b81548152906001019060200180831161073557829003601f168201915b5050505050905090565b60006107678261117a565b6107835760405162461bcd60e51b81526004016106ae9061222f565b506000908152600460205260409020546001600160a01b031690565b60006107aa82610cdf565b9050806001600160a01b0316836001600160a01b031614156107de5760405162461bcd60e51b81526004016106ae90612348565b806001600160a01b03166107f0611176565b6001600160a01b0316148061080c575061080c8161061d611176565b6108285760405162461bcd60e51b81526004016106ae9061210a565b6108328383611197565b505050565b600d5481565b60085490565b600f5481565b61085a610854611176565b82611205565b6108765760405162461bcd60e51b81526004016106ae90612389565b61083283838361128a565b600061088c83610da2565b82106108aa5760405162461bcd60e51b81526004016106ae90611f29565b506001600160a01b03919091166000908152600660209081526040808320938352929052205490565b6108db611176565b6001600160a01b03166108ec610e75565b6001600160a01b0316146109125760405162461bcd60e51b81526004016106ae9061227b565b6001600160a01b03166000908152601160205260409020805460ff19169055565b61093b611176565b6001600160a01b031661094c610e75565b6001600160a01b0316146109725760405162461bcd60e51b81526004016106ae9061227b565b600061097c610e75565b6001600160a01b03164760405161099290611e73565b60006040518083038185875af1925050503d80600081146109cf576040519150601f19603f3d011682016040523d82523d6000602084013e6109d4565b606091505b50509050806109e257600080fd5b50565b60006109ef61083d565b60105490915060ff1615610a0257600080fd5b60008211610a0f57600080fd5b600f54821115610a1e57600080fd5b600e54610a2b838361243b565b1115610a3657600080fd5b610a3e610e75565b6001600160a01b0316336001600160a01b031614610a705781600d54610a649190612467565b341015610a7057600080fd5b60015b828111610a9f57610a8d84610a88838561243b565b6113b7565b80610a9781612504565b915050610a73565b50505050565b61083283838360405180602001604052806000815250610f61565b60606000610acd83610da2565b905060008167ffffffffffffffff811115610af857634e487b7160e01b600052604160045260246000fd5b604051908082528060200260200182016040528015610b21578160200160208202803683370190505b50905060005b82811015610b7657610b398582610881565b828281518110610b5957634e487b7160e01b600052603260045260246000fd5b602090810291909101015280610b6e81612504565b915050610b27565b509392505050565b610b86611176565b6001600160a01b0316610b97610e75565b6001600160a01b031614610bbd5760405162461bcd60e51b81526004016106ae9061227b565b600d55565b610bca611176565b6001600160a01b0316610bdb610e75565b6001600160a01b031614610c015760405162461bcd60e51b81526004016106ae9061227b565b6001600160a01b03166000908152601160205260409020805460ff19166001179055565b6000610c2f61083d565b8210610c4d5760405162461bcd60e51b81526004016106ae906123da565b60088281548110610c6e57634e487b7160e01b600052603260045260246000fd5b90600052602060002001549050919050565b610c88611176565b6001600160a01b0316610c99610e75565b6001600160a01b031614610cbf5760405162461bcd60e51b81526004016106ae9061227b565b8051610cd290600b906020840190611a53565b5050565b60105460ff1681565b6000818152600260205260408120546001600160a01b0316806106675760405162461bcd60e51b81526004016106ae906121b1565b600b8054610d21906124c9565b80601f0160208091040260200160405190810160405280929190818152602001828054610d4d906124c9565b8015610d9a5780601f10610d6f57610100808354040283529160200191610d9a565b820191906000526020600020905b815481529060010190602001808311610d7d57829003601f168201915b505050505081565b60006001600160a01b038216610dca5760405162461bcd60e51b81526004016106ae90612167565b506001600160a01b031660009081526003602052604090205490565b610dee611176565b6001600160a01b0316610dff610e75565b6001600160a01b031614610e255760405162461bcd60e51b81526004016106ae9061227b565b610e2f60006113d1565b565b610e39611176565b6001600160a01b0316610e4a610e75565b6001600160a01b031614610e705760405162461bcd60e51b81526004016106ae9061227b565b600f55565b600a546001600160a01b031690565b6060600180546106d9906124c9565b610e9b611176565b6001600160a01b0316826001600160a01b03161415610ecc5760405162461bcd60e51b81526004016106ae90612087565b8060056000610ed9611176565b6001600160a01b03908116825260208083019390935260409182016000908120918716808252919093529120805460ff191692151592909217909155610f1d611176565b6001600160a01b03167f17307eab39ab6107e8899845ad3d59bd9653f200f220920489ca2b5937696c3183604051610f559190611f0b565b60405180910390a35050565b610f72610f6c611176565b83611205565b610f8e5760405162461bcd60e51b81526004016106ae90612389565b610a9f84848484611423565b600c8054610d21906124c9565b6060610fb28261117a565b610fce5760405162461bcd60e51b81526004016106ae906122f9565b6000610fd8611456565b90506000815111610ff85760405180602001604052806000815250611026565b8061100284611465565b600c60405160200161101693929190611db1565b6040516020818303038152906040525b9392505050565b600e5481565b60116020526000908152604090205460ff1681565b611050611176565b6001600160a01b0316611061610e75565b6001600160a01b0316146110875760405162461bcd60e51b81526004016106ae9061227b565b8051610cd290600c906020840190611a53565b6001600160a01b03918216600090815260056020908152604080832093909416825291909152205460ff1690565b6110d0611176565b6001600160a01b03166110e1610e75565b6001600160a01b0316146111075760405162461bcd60e51b81526004016106ae9061227b565b6001600160a01b03811661112d5760405162461bcd60e51b81526004016106ae90611fc6565b6109e2816113d1565b60006001600160e01b031982166380ac58cd60e01b148061116757506001600160e01b03198216635b5e139f60e01b145b80610667575061066782611580565b3390565b6000908152600260205260409020546001600160a01b0316151590565b600081815260046020526040902080546001600160a01b0319166001600160a01b03841690811790915581906111cc82610cdf565b6001600160a01b03167f8c5be1e5ebec7d5bd14f71427d1e84f3dd0314c0f7b2291e5b200ac8c7c3b92560405160405180910390a45050565b60006112108261117a565b61122c5760405162461bcd60e51b81526004016106ae906120be565b600061123783610cdf565b9050806001600160a01b0316846001600160a01b031614806112725750836001600160a01b03166112678461075c565b6001600160a01b0316145b806112825750611282818561109a565b949350505050565b826001600160a01b031661129d82610cdf565b6001600160a01b0316146112c35760405162461bcd60e51b81526004016106ae906122b0565b6001600160a01b0382166112e95760405162461bcd60e51b81526004016106ae90612043565b6112f4838383611599565b6112ff600082611197565b6001600160a01b0383166000908152600360205260408120805460019290611328908490612486565b90915550506001600160a01b038216600090815260036020526040812080546001929061135690849061243b565b909155505060008181526002602052604080822080546001600160a01b0319166001600160a01b0386811691821790925591518493918716917fddf252ad1be2c89b69c2b068fc378daa952ba7f163c4a11628f55a4df523b3ef91a4505050565b610cd2828260405180602001604052806000815250611622565b600a80546001600160a01b038381166001600160a01b0319831681179093556040519116919082907f8be0079c531659141344cd1fd0a4f28419497f9722a3daafe3b4186f6b6457e090600090a35050565b61142e84848461128a565b61143a84848484611655565b610a9f5760405162461bcd60e51b81526004016106ae90611f74565b6060600b80546106d9906124c9565b60608161148a57506040805180820190915260018152600360fc1b602082015261066a565b8160005b81156114b4578061149e81612504565b91506114ad9050600a83612453565b915061148e565b60008167ffffffffffffffff8111156114dd57634e487b7160e01b600052604160045260246000fd5b6040519080825280601f01601f191660200182016040528015611507576020820181803683370190505b5090505b84156112825761151c600183612486565b9150611529600a8661251f565b61153490603061243b565b60f81b81838151811061155757634e487b7160e01b600052603260045260246000fd5b60200101906001600160f81b031916908160001a905350611579600a86612453565b945061150b565b6001600160e01b031981166301ffc9a760e01b14919050565b6115a4838383610832565b6001600160a01b0383166115c0576115bb81611770565b6115e3565b816001600160a01b0316836001600160a01b0316146115e3576115e383826117b4565b6001600160a01b0382166115ff576115fa81611851565b610832565b826001600160a01b0316826001600160a01b03161461083257610832828261192a565b61162c838361196e565b6116396000848484611655565b6108325760405162461bcd60e51b81526004016106ae90611f74565b6000611669846001600160a01b0316611a4d565b1561176557836001600160a01b031663150b7a02611685611176565b8786866040518563ffffffff1660e01b81526004016116a79493929190611e8a565b602060405180830381600087803b1580156116c157600080fd5b505af19250505080156116f1575060408051601f3d908101601f191682019092526116ee91810190611d0b565b60015b61174b573d80801561171f576040519150601f19603f3d011682016040523d82523d6000602084013e611724565b606091505b5080516117435760405162461bcd60e51b81526004016106ae90611f74565b805181602001fd5b6001600160e01b031916630a85bd0160e11b149050611282565b506001949350505050565b600880546000838152600960205260408120829055600182018355919091527ff3f7a9fe364faab93b216da50a3214154f22a0a2b415b23a84c8169e8b636ee30155565b600060016117c184610da2565b6117cb9190612486565b60008381526007602052604090205490915080821461181e576001600160a01b03841660009081526006602090815260408083208584528252808320548484528184208190558352600790915290208190555b5060009182526007602090815260408084208490556001600160a01b039094168352600681528383209183525290812055565b60085460009061186390600190612486565b6000838152600960205260408120546008805493945090928490811061189957634e487b7160e01b600052603260045260246000fd5b9060005260206000200154905080600883815481106118c857634e487b7160e01b600052603260045260246000fd5b600091825260208083209091019290925582815260099091526040808220849055858252812055600880548061190e57634e487b7160e01b600052603160045260246000fd5b6001900381819060005260206000200160009055905550505050565b600061193583610da2565b6001600160a01b039093166000908152600660209081526040808320868452825280832085905593825260079052919091209190915550565b6001600160a01b0382166119945760405162461bcd60e51b81526004016106ae906121fa565b61199d8161117a565b156119ba5760405162461bcd60e51b81526004016106ae9061200c565b6119c660008383611599565b6001600160a01b03821660009081526003602052604081208054600192906119ef90849061243b565b909155505060008181526002602052604080822080546001600160a01b0319166001600160a01b03861690811790915590518392907fddf252ad1be2c89b69c2b068fc378daa952ba7f163c4a11628f55a4df523b3ef908290a45050565b3b151590565b828054611a5f906124c9565b90600052602060002090601f016020900481019282611a815760008555611ac7565b82601f10611a9a57805160ff1916838001178555611ac7565b82800160010185558215611ac7579182015b82811115611ac7578251825591602001919060010190611aac565b50611ad3929150611ad7565b5090565b5b80821115611ad35760008155600101611ad8565b600067ffffffffffffffff80841115611b0757611b0761255f565b604051601f8501601f191681016020018281118282101715611b2b57611b2b61255f565b604052848152915081838501861015611b4357600080fd5b8484602083013760006020868301015250509392505050565b80356001600160a01b038116811461066a57600080fd5b8035801515811461066a57600080fd5b600060208284031215611b94578081fd5b61102682611b5c565b60008060408385031215611baf578081fd5b611bb883611b5c565b9150611bc660208401611b5c565b90509250929050565b600080600060608486031215611be3578081fd5b611bec84611b5c565b9250611bfa60208501611b5c565b9150604084013590509250925092565b60008060008060808587031215611c1f578081fd5b611c2885611b5c565b9350611c3660208601611b5c565b925060408501359150606085013567ffffffffffffffff811115611c58578182fd5b8501601f81018713611c68578182fd5b611c7787823560208401611aec565b91505092959194509250565b60008060408385031215611c95578182fd5b611c9e83611b5c565b9150611bc660208401611b73565b60008060408385031215611cbe578182fd5b611cc783611b5c565b946020939093013593505050565b600060208284031215611ce6578081fd5b61102682611b73565b600060208284031215611d00578081fd5b813561102681612575565b600060208284031215611d1c578081fd5b815161102681612575565b600060208284031215611d38578081fd5b813567ffffffffffffffff811115611d4e578182fd5b8201601f81018413611d5e578182fd5b61128284823560208401611aec565b600060208284031215611d7e578081fd5b5035919050565b60008151808452611d9d81602086016020860161249d565b601f01601f19169290920160200192915050565b600084516020611dc48285838a0161249d565b855191840191611dd78184848a0161249d565b8554920191839060028104600180831680611df357607f831692505b858310811415611e1157634e487b7160e01b88526022600452602488fd5b808015611e255760018114611e3657611e62565b60ff19851688528388019550611e62565b611e3f8b61242f565b895b85811015611e5a5781548a820152908401908801611e41565b505083880195505b50939b9a5050505050505050505050565b90565b6001600160a01b0391909116815260200190565b6001600160a01b0385811682528416602082015260408101839052608060608201819052600090611ebd90830184611d85565b9695505050505050565b6020808252825182820181905260009190848201906040850190845b81811015611eff57835183529284019291840191600101611ee3565b50909695505050505050565b901515815260200190565b6000602082526110266020830184611d85565b6020808252602b908201527f455243373231456e756d657261626c653a206f776e657220696e646578206f7560408201526a74206f6620626f756e647360a81b606082015260800190565b60208082526032908201527f4552433732313a207472616e7366657220746f206e6f6e20455243373231526560408201527131b2b4bb32b91034b6b83632b6b2b73a32b960711b606082015260800190565b60208082526026908201527f4f776e61626c653a206e6577206f776e657220697320746865207a65726f206160408201526564647265737360d01b606082015260800190565b6020808252601c908201527f4552433732313a20746f6b656e20616c7265616479206d696e74656400000000604082015260600190565b60208082526024908201527f4552433732313a207472616e7366657220746f20746865207a65726f206164646040820152637265737360e01b606082015260800190565b60208082526019908201527f4552433732313a20617070726f766520746f2063616c6c657200000000000000604082015260600190565b6020808252602c908201527f4552433732313a206f70657261746f7220717565727920666f72206e6f6e657860408201526b34b9ba32b73a103a37b5b2b760a11b606082015260800190565b60208082526038908201527f4552433732313a20617070726f76652063616c6c6572206973206e6f74206f7760408201527f6e6572206e6f7220617070726f76656420666f7220616c6c0000000000000000606082015260800190565b6020808252602a908201527f4552433732313a2062616c616e636520717565727920666f7220746865207a65604082015269726f206164647265737360b01b606082015260800190565b60208082526029908201527f4552433732313a206f776e657220717565727920666f72206e6f6e657869737460408201526832b73a103a37b5b2b760b91b606082015260800190565b6020808252818101527f4552433732313a206d696e7420746f20746865207a65726f2061646472657373604082015260600190565b6020808252602c908201527f4552433732313a20617070726f76656420717565727920666f72206e6f6e657860408201526b34b9ba32b73a103a37b5b2b760a11b606082015260800190565b6020808252818101527f4f776e61626c653a2063616c6c6572206973206e6f7420746865206f776e6572604082015260600190565b60208082526029908201527f4552433732313a207472616e73666572206f6620746f6b656e2074686174206960408201526839903737ba1037bbb760b91b606082015260800190565b6020808252602f908201527f4552433732314d657461646174613a2055524920717565727920666f72206e6f60408201526e3732bc34b9ba32b73a103a37b5b2b760891b606082015260800190565b60208082526021908201527f4552433732313a20617070726f76616c20746f2063757272656e74206f776e656040820152603960f91b606082015260800190565b60208082526031908201527f4552433732313a207472616e736665722063616c6c6572206973206e6f74206f6040820152701ddb995c881b9bdc88185c1c1c9bdd9959607a1b606082015260800190565b6020808252602c908201527f455243373231456e756d657261626c653a20676c6f62616c20696e646578206f60408201526b7574206f6620626f756e647360a01b606082015260800190565b90815260200190565b60009081526020902090565b6000821982111561244e5761244e612533565b500190565b60008261246257612462612549565b500490565b600081600019048311821515161561248157612481612533565b500290565b60008282101561249857612498612533565b500390565b60005b838110156124b85781810151838201526020016124a0565b83811115610a9f5750506000910152565b6002810460018216806124dd57607f821691505b602082108114156124fe57634e487b7160e01b600052602260045260246000fd5b50919050565b600060001982141561251857612518612533565b5060010190565b60008261252e5761252e612549565b500690565b634e487b7160e01b600052601160045260246000fd5b634e487b7160e01b600052601260045260246000fd5b634e487b7160e01b600052604160045260246000fd5b6001600160e01b0319811681146109e257600080fdfea2646970667358221220ab1a0b940a5c857a81a5a6a5986b592f730063a37b12a4233147cc9c1bb0212964736f6c63430008000033",
  "immutableReferences": {},
  "source": "// SPDX-License-Identifier: GPL-3.0\n\n\npragma solidity ^0.8.0;\n\nimport \"@openzeppelin/contracts/token/ERC721/extensions/ERC721Enumerable.sol\";\nimport \"@openzeppelin/contracts/access/Ownable.sol\";\n\ncontract SmartContract is ERC721Enumerable, Ownable {\n  using Strings for uint256;\n\n  string public baseURI;\n  string public baseExtension = \".json\";\n  uint256 public cost = 1 ether;\n  uint256 public maxSupply = 10;\n  uint256 public maxMintAmount = 2;\n  bool public paused = false;\n  mapping(address => bool) public whitelisted;\n\n  constructor() ERC721(\"Smart Contract\",\"SC\"){}\n\n  // internal\n  function _baseURI() internal view virtual override returns (string memory) {\n    return baseURI;\n  }\n\n  // public\n  function mint(address _to, uint256 _mintAmount) public payable {\n    uint256 supply = totalSupply();\n    require(!paused);\n    require(_mintAmount > 0);\n    require(_mintAmount <= maxMintAmount);\n    require(supply + _mintAmount <= maxSupply);\n\n    if (msg.sender != owner()) {\n        require(msg.value >= cost * _mintAmount);\n    }\n\n    for (uint256 i = 1; i <= _mintAmount; i++) {\n      _safeMint(_to, supply + i);\n    }\n  }\n\n  function walletOfOwner(address _owner)\n    public\n    view\n    returns (uint256[] memory)\n  {\n    uint256 ownerTokenCount = balanceOf(_owner);\n    uint256[] memory tokenIds = new uint256[](ownerTokenCount);\n    for (uint256 i; i < ownerTokenCount; i++) {\n      tokenIds[i] = tokenOfOwnerByIndex(_owner, i);\n    }\n    return tokenIds;\n  }\n\n  function tokenURI(uint256 tokenId)\n    public\n    view\n    virtual\n    override\n    returns (string memory)\n  {\n    require(\n      _exists(tokenId),\n      \"ERC721Metadata: URI query for nonexistent token\"\n    );\n\n    string memory currentBaseURI = _baseURI();\n    return bytes(currentBaseURI).length > 0\n        ? string(abi.encodePacked(currentBaseURI, tokenId.toString(), baseExtension))\n        : \"\";\n  }\n\n  //only owner\n  function setCost(uint256 _newCost) public onlyOwner {\n    cost = _newCost;\n  }\n\n  function setmaxMintAmount(uint256 _newmaxMintAmount) public onlyOwner {\n    maxMintAmount = _newmaxMintAmount;\n  }\n\n  function setBaseURI(string memory _newBaseURI) public onlyOwner {\n    baseURI = _newBaseURI;\n  }\n\n  function setBaseExtension(string memory _newBaseExtension) public onlyOwner {\n    baseExtension = _newBaseExtension;\n  }\n\n  function pause(bool _state) public onlyOwner {\n    paused = _state;\n  }\n \n function whitelistUser(address _user) public onlyOwner {\n    whitelisted[_user] = true;\n  }\n \n  function removeWhitelistUser(address _user) public onlyOwner {\n    whitelisted[_user] = false;\n  }\n\n  function withdraw() public payable onlyOwner {\n    \n    // Do not remove this otherwise you will not be able to withdraw the funds.\n    // =============================================================================\n    (bool os, ) = payable(owner()).call{value: address(this).balance}(\"\");\n    require(os);\n    // =============================================================================\n  }\n}",
  "sourcePath": "/Users/arulkp/Desktop/Blockchain/thestonksociety-rahul/frontend/contracts/SmartContract.sol",
  "compiler": {
    "name": "solc",
    "version": "0.8.0+commit.c7dfd78e.Emscripten.clang"
  },
  "schemaVersion": "3.4.3",
  "updatedAt": "2021-11-20T06:58:18.055Z",
  "networkType": "ethereum",
  "devdoc": {
    "kind": "dev",
    "methods": {
      "approve(address,uint256)": {
        "details": "See {IERC721-approve}."
      },
      "balanceOf(address)": {
        "details": "See {IERC721-balanceOf}."
      },
      "getApproved(uint256)": {
        "details": "See {IERC721-getApproved}."
      },
      "isApprovedForAll(address,address)": {
        "details": "See {IERC721-isApprovedForAll}."
      },
      "name()": {
        "details": "See {IERC721Metadata-name}."
      },
      "owner()": {
        "details": "Returns the address of the current owner."
      },
      "ownerOf(uint256)": {
        "details": "See {IERC721-ownerOf}."
      },
      "renounceOwnership()": {
        "details": "Leaves the contract without owner. It will not be possible to call `onlyOwner` functions anymore. Can only be called by the current owner. NOTE: Renouncing ownership will leave the contract without an owner, thereby removing any functionality that is only available to the owner."
      },
      "safeTransferFrom(address,address,uint256)": {
        "details": "See {IERC721-safeTransferFrom}."
      },
      "safeTransferFrom(address,address,uint256,bytes)": {
        "details": "See {IERC721-safeTransferFrom}."
      },
      "setApprovalForAll(address,bool)": {
        "details": "See {IERC721-setApprovalForAll}."
      },
      "supportsInterface(bytes4)": {
        "details": "See {IERC165-supportsInterface}."
      },
      "symbol()": {
        "details": "See {IERC721Metadata-symbol}."
      },
      "tokenByIndex(uint256)": {
        "details": "See {IERC721Enumerable-tokenByIndex}."
      },
      "tokenOfOwnerByIndex(address,uint256)": {
        "details": "See {IERC721Enumerable-tokenOfOwnerByIndex}."
      },
      "tokenURI(uint256)": {
        "details": "See {IERC721Metadata-tokenURI}."
      },
      "totalSupply()": {
        "details": "See {IERC721Enumerable-totalSupply}."
      },
      "transferFrom(address,address,uint256)": {
        "details": "See {IERC721-transferFrom}."
      },
      "transferOwnership(address)": {
        "details": "Transfers ownership of the contract to a new account (`newOwner`). Can only be called by the current owner."
      }
    },
    "version": 1
  },
  "userdoc": {
    "kind": "user",
    "methods": {},
    "version": 1
  }
}